:020000040800F2
:100000000020002091030008E5020008E902000832
:10001000ED020008F1020008F502000800000000EF
:10002000000000000000000000000000F9020008CD
:10003000FD0200080000000001030008050300089D
:10004000D5030008D5030008D5030008D503000830
:10005000D5030008D5030008D5030008D503000820
:10006000D5030008D5030008D5030008D503000810
:10007000D5030008D5030008D5030008D503000800
:10008000D5030008D5030008D5030008D5030008F0
:10009000D5030008D5030008D5030008D5030008E0
:1000A000D5030008D5030008D5030008D5030008D0
:1000B00061030008D5030008D5030008D503000834
:1000C000D5030008D5030008D5030008D5030008B0
:1000D000D5030008D5030008D5030008D5030008A0
:1000E000D5030008D5030008D50300080000000070
:1000F0000000000000000000000000000000000000
:0C01000000000000000000005FF808F1A3
:10010C0030B400204FF41F05334B34491C6882B0C7
:10011C0044F001041C605C681A462140596019685F
:10012C0021F0847121F480311960196821F4802147
:10013C001960596821F4FE0159609D60D8620090E5
:10014C000190196841F48031196003E0009BB3F50C
:10015C00A06F09D0136803F400330193009B0133A3
:10016C000093019B002BF1D01B4B1B6813F4003345
:10017C0018BF01230193019B012B06D04FF00062A5
:10018C00174B9A6002B030BC7047134B1A46596833
:10019C0059605968596059685960596821F47C1143
:1001AC005960596841F498115960196841F080718F
:1001BC00196013689B01FCD55368074923F00303AE
:1001CC005360536843F0020353604B6803F00C0315
:1001DC00082BFAD1D2E700BF001002400000FFF854
:1001EC0000ED00E0044A936919B923EA000090611C
:1001FC007047184390617047001002402DE9F041A0
:10020C00CD78EB0648BF8B78098805F00F0E48BFF8
:10021C004EEA030E11F0FF0F20D0002301274FF000
:10022C000F08066802E00133082B16D007FA03F218
:10023C0032EA0104F7D19C0008FA04FC26EA0C0609
:10024C000EFA04F4282D46EA040632D0482D03F1A8
:10025C00010308BF0261082BE8D10660FF2924D9ED
:10026C000022082301274FF00F08466804E00133F1
:10027C00102B02F1040217D007FA03F434EA010C34
:10028C00F5D108FA02FC26EA0C06282D0EFA02FC1F
:10029C004CEA06060BD0482D03F1010308BF04619C
:1002AC00102B02F10402E7D14660BDE8F0814461F5
:1002BC00DDE74261B7E700BFC368194214BF0120F4
:1002CC00002070470AB9416170470161704700BF57
:1002DC00C94389B201827047704700BFFEE700BF77
:1002EC00FEE700BFFEE700BFFEE700BF704700BFA0
:1002FC00704700BF704700BF704700BF10B50121A9
:10030C0082B01020FFF76EFF4FF40074032210230D
:10031C0001A90548ADF804408DF806208DF807308A
:10032C00FFF76CFF02B010BD0010014010B5FFF7D5
:10033C00E5FF074C4FF400712046FFF7BDFFB0FA04
:10034C0080F24FF4007152092046FFF7BBFFF1E732
:10035C000010014010B50A4C4FF480712046FFF795
:10036C00ABFFB0FA80F24FF4807120465209FFF7D0
:10037C00A9FFBDE8104001214FF08040FFF7A8BF56
:10038C0000100140002103E00A4B5B58435004313C
:10039C0009480A4B42189A42F6D3094A02E0002354
:1003AC0042F8043B074B9A42F9D3FFF7A9FEFFF73B
:1003BC00BDFF7047D803000800000020000000209B
:0C03CC000000002000000020FEE7000000
:04000005080003915B
:00000001FF
